S014000046696E616C50726F6A6563742E737265634F
S11300000C942A000C9486000C9441000C943F003C
S11300100C943F000C943F000C943F000C943F0060
S11300200C943F000C943F000C943F000C943F0050
S11300300C943F000C943F000C943F000C943F0040
S11300400C943F000C943F000C943F000C943F0030
S11300500C943F0011241FBECFE5D8E0DEBFCDBF16
S113006010E0A0E6B0E0E6E3F2E002C005900D92F5
S1130070AC36B107D9F70E9416010C9419010C94FF
S113008000001F920F920FB60F9211242F933F93EB
S11300908F939F9389B38B3F81F018F4873F89F046
S11300A013C08D3F31F08E3F79F481E0809361007D
S11300B00BC082E08093610007C083E080936100FD
S11300C003C084E0809361008FEF8BBB909160004C
S11300D080916100981311C082B38C7F82BB22B3DC
S11300E0309160003D5F81E090E002C0880F991F6D
S11300F03A95E2F78095822382BB9F918F913F913D
S11301002F910F900FBE0F901F9018951F920F9272
S11301100FB60F9211242F933F938F939F93EF93D6
S1130120FF9386B38F3E11F138F48F3B39F18F3D45
S113013009F18F3751F526C08B3F81F018F4873FC2
S113014089F023C08D3F31F08E3FF9F481E0809334
S113015060001BC082E08093600017C083E080933E
S1130160600013C084E0809360000FC081E080933E
S113017060000BC082E08093600007C083E080933E
S1130180600003C084E080936000909161008091DE
S11301906000981730F481E082BB82B3806F82BB29
S11301A019C0981312C082B3806F82BB22B33091FE
S11301B060003D5F81E090E002C0880F991F3A958E
S11301C0E2F78095822382BB05C082E082BB82B3C2
S11301D0806F82BBE0916000F0E0EE59FF4F8081B8
S11301E085BBFF91EF919F918F913F912F910F903C
S11301F00FBE0F901F90189580EF8ABB8FE08BBBCA
S113020017BA8FEF88BB84BB93EF91BB88BB92BBBB
S11302108BB780648BBF85B7836085BF8BB78068DD
S11302208BBF85B78C6085BF789408950E94FC00CD
S1090230FFCFF894FFCF9C
S10F023601013F065B4F666D7D077F6F82
S9030000FC
