S014000046696E616C50726F6A6563742E737265634F
S11300000C942A000C9432010C94E1000C944700E7
S11300100C9447000C9447000C9447000C94470040
S11300200C9447000C9447000C9447000C94BF00B8
S11300300C9447000C9447000C9447000C94470020
S11300400C9447000C9447000C9447000C94470010
S11300500C94470011241FBECFE5D8E0DEBFCDBF0E
S113006010E0A0E6B0E0E2E1F6E002C005900D92F7
S1130070A237B107D9F720E0A2E7B0E001C01D9292
S1130080AA37B207E1F70E94E3010C9407030C942A
S11300900000CF93DF93EC0184E090E00E94E6013E
S11300A0FC01D183C08313821282DF91CF91089522
S11300B084E090E00E94E601FC0113821282118226
S11300C010820895CF93DF93EC01CB010E94490085
S11300D0EA81FB81309729F49B838A8399838883FF
S11300E004C0938382839B838A83DF91CF91089595
S11300F0DC01ED91FC911197309771F0828193812D
S113010011969C938E93892B21F413961C921E9224
S113011012978E2F9F2F08950895DC01ED91FC9185
S113012081E022813381232B09F080E0089520911E
S1130130670030E02817390734F481E082BB82B3CA
S1130140806F82BB19C02817390789F482B3806F86
S113015082BB42B32D5F3F4F81E090E002C0880F25
S1130160991F2A95E2F78095842382BB05C082E01B
S113017082BB82B3806F82BB85E083BF08951F92E8
S11301800F920FB60F9211248F93EF93FF938091E8
S11301907300882351F0E0916600F0E0E859FF4FC6
S11301A0808185BB1092730004C015BA81E08093EE
S11301B07300FF91EF918F910F900FBE0F901F90DE
S11301C018951F920F920FB60F9211242F933F93FD
S11301D08F939F93EF93FF9389B38B3F81F018F430
S11301E0873F89F013C08D3F31F08E3F79F481E071
S11301F0809367000BC082E08093670007C083E0B0
S11302008093670003C084E0809367008FEF8BBB0B
S11302109091660080916700981311C082B38C7F1F
S113022082BB22B3309166003D5F81E090E002C062
S1130230880F991F3A95E2F78095822382BB13BEFB
S1130240E0916700F0E0E859FF4F808185BBFF91A2
S1130250EF919F918F913F912F910F900FBE0F902F
S11302601F9018951F920F920FB60F9211242F937F
S11302703F934F935F936F937F938F939F93AF932A
S1130280BF93CF93DF93EF93FF9380917200882302
S113029049F080917400909175000E9478008093D9
S11302A0660034C086B38F3E11F138F48F3B39F1C8
S11302B08F3D09F18F3751F526C08B3F81F018F43B
S11302C0873F89F023C08D3F31F08E3FF9F481E000
S11302D0809366001BC082E08093660017C083E0B1
S11302E08093660013C084E0809366000FC081E0B1
S11302F0809366000BC082E08093660007C083E0B1
S11303008093660003C084E080936600C09174000B
S1130310D0917500CE010E948D00882391F06091E8
S1130320660070E0CE010E9462008091740090919A
S113033075000E947800FC01808191810E949700E1
S113034006C06091660070E0CE010E946200FF91D9
S1130350EF91DF91CF91BF91AF919F918F917F9159
S11303606F915F914F913F912F910F900FBE0F901E
S11303701F90189580EF8ABB8FE08BBB17BA8FEF65
S113038088BB84BB93EF91BB88BB92BB8BB7806463
S11303908BBF85B7836085BF8BB780688BBF85B7FC
S11303A08C6085BF81E089BF7894E0916600F0E0BD
S11303B0E859FF4F808185BB0E94580090937500D7
S11303C08093740008950E94BA01FFCF0F931F9386
S11303D0CF93DF938230910510F482E090E0E091B6
S11303E07800F091790020E030E0A0E0B0E03097B0
S11303F019F1408151810281138148175907C8F0CE
S11304008417950769F4109731F012960C9312979C
S113041013961C9327C0009378001093790022C090
S11304202115310519F04217530718F49A01BD013B
S1130430EF01DF01F801DBCF21153105F9F0281BAD
S1130440390B2430310580F48A819B816115710553
S113045021F0FB019383828304C0909379008093FD
S11304607800FE01329644C0FE01E20FF31F81932F
S1130470919322503109398328833AC02091760020
S113048030917700232B41F4209162003091630076
S113049030937700209376002091600030916100C2
S11304A02115310541F42DB73EB7409164005091B8
S11304B06500241B350BE0917600F0917700E2177C
S11304C0F307A0F42E1B3F0B2817390778F0AC0173
S11304D04E5F5F4F2417350748F04E0F5F1F509350
S11304E07700409376008193919302C0E0E0F0E0BE
S11304F0CF01DF91CF911F910F910895CF93DF9397
S1130500009709F481C0FC01329713821282A091F2
S11305107800B0917900109781F420813181820FA5
S1130520931F20917600309177002817390751F5F1
S1130530F0937700E093760067C0ED0120E030E0AF
S1130540CE17DF0740F44A815B819E0141155105B6
S1130550F1F0EA01F5CFD383C28340815181840F46
S1130560951FC817D90759F488819981840F951F5D
S11305700296918380838A819B8193838283211550
S1130580310529F4F0937900E09378003DC0E90146
S1130590FB83EA8349915991C40FD51FEC17FD07DA
S11305A061F480819181840F951F0296E9019983FA
S11305B08883828193819B838A83E0E0F0E01296B2
S11305C08D919C911397009719F0FD01DC01F7CFF1
S11305D08D919C9111979D012E5F3F4F820F931F28
S11305E020917600309177002817390769F4309705
S11305F029F4109279001092780002C013821282BA
S1130600B0937700A0937600DF91CF910895F8948A
S1050610FFCF16
S113061200007A00200001013F065B4F666D7D07F2
S10506227F6FE4
S9030000FC
