S014000046696E616C50726F6A6563742E737265634F
S11300000C942A000C941D020C94AB010C94470030
S11300100C9447000C9447000C9447000C94470040
S11300200C9447000C9447000C9447000C948901ED
S11300300C9447000C9447000C9447000C94470020
S11300400C9447000C9447000C9447000C94470010
S11300500C94470011241FBECFE5D8E0DEBFCDBF0E
S113006010E0A0E6B0E0E0E2F7E002C005900D92F7
S1130070A237B107D9F720E0A2E7B0E001C01D9292
S1130080AA37B207E1F70E946A020C948E030C941B
S11300900000CF93DF93EC0184E090E00E946D02B6
S11300A0FC01D183C08313821282DF91CF91089522
S11300B084E090E00E946D02FC011382128211829E
S11300C010820895CF93DF93EC01CB010E94490085
S11300D0EA81FB81309729F49B838A8399838883FF
S11300E004C0938382839B838A83DF91CF91089595
S11300F0CF93DC01ED91FC911197309789F08281C7
S1130100938111969C938E93892B21F413961C92C0
S11301101E921297C081CF010E9405038C2F00C04C
S1130120CF910895DC01ED91FC91309769F070E076
S1130130808191818617970749F00280F381E02D31
S11301403097B1F380E0089580E0089581E0089548
S11301502091670030E02817390734F481E082BB2E
S113016082B3806F82BB19C02817390789F482B320
S1130170806F82BB42B32D5F3F4F81E090E002C0AD
S1130180880F991F2A95E2F78095842382BB05C0C6
S113019082E082BB82B3806F82BB85E083BF81E053
S11301A0809372000895CF93DF9386B38F3E09F452
S11301B05AC050F48F3B09F476C08F3D09F463C0F4
S11301C08F3709F08FC07FC08B3F59F118F4873FF8
S11301D0C9F188C08D3FA1F08E3F09F083C0C09162
S11301E07400D091750061E0CE010E9492008130CC
S11301F009F478C061E070E0CE010E94620072C030
S1130200C0917400D091750062E0CE010E9492000A
S1130210813009F467C062E070E0CE010E946200A0
S113022061C0C0917400D091750063E0CE010E945A
S11302309200813009F456C063E070E0CE010E9460
S1130240620050C0C0917400D091750064E0CE018A
S11302500E949200813009F445C064E070E0CE0150
S11302600E9462003FC0C0917400D091750061E0AB
S1130270CE010E9492008130A9F161E070E0CE01CC
S11302800E9462002FC0C0917400D091750062E09A
S1130290CE010E949200813029F162E070E0CE012B
S11302A00E9462001FC0C0917400D091750063E089
S11302B0CE010E9492008130A9F063E070E0CE018B
S11302C00E9462000FC0C0917400D091750064E078
S11302D0CE010E949200813029F064E070E0CE01EA
S11302E00E946200E0917400F09175008081918118
S11302F0892B61F080917200813041F0CF010E941E
S113030078008093660090E00E94A800DF91CF916E
S113031008951F920F920FB60F9211248F93EF93AB
S1130320FF9380917300882351F0E0916600F0E020
S1130330E859FF4F808185BB1092730004C015BA41
S113034081E080937300FF91EF918F910F900FBE26
S11303500F901F9018951F920F920FB60F921124B1
S11303602F933F934F935F936F937F938F939F93B9
S1130370AF93BF93EF93FF9389B38B3F81F018F44E
S1130380873F89F013C08D3F31F08E3F79F481E0CF
S1130390809367000BC082E08093670007C083E00E
S11303A08093670003C084E0809367008FEF8BBB6A
S11303B09091660080916700981311C082B38C7F7E
S11303C082BB22B3309166003D5F81E090E002C0C1
S11303D0880F991F3A95E2F78095822382BB13BE5A
S11303E0E0916700F0E0E859FF4F808185BB1092EF
S11303F07200E0917400F091750080819181892BE5
S113040059F02FE78AE196E0215080409040E1F7CF
S113041000C000000E94D300FF91EF91BF91AF9103
S11304209F918F917F916F915F914F913F912F9108
S11304300F900FBE0F901F9018951F920F920FB63A
S11304400F9211242F933F934F935F936F937F9356
S11304508F939F93AF93BF93EF93FF930E94D30027
S1130460FF91EF91BF91AF919F918F917F916F9188
S11304705F914F913F912F910F900FBE0F901F905E
S1130480189580EF8ABB8FE08BBB17BA8FEF88BBC0
S113049084BB93EF91BB88BB92BB8BB780648BBF4B
S11304A085B7836085BF8BB780688BBF85B78C6049
S11304B085BF81E089BF7894E0916600F0E0E85957
S11304C0FF4F808185BB0E945800909375008093F4
S11304D0740008950E944102FFCF0F931F93CF939E
S11304E0DF938230910510F482E090E0E09178008F
S11304F0F091790020E030E0A0E0B0E0309719F10D
S1130500408151810281138148175907C8F084172B
S1130510950769F4109731F012960C93129713967D
S11305201C9327C0009378001093790022C02115F2
S1130530310519F04217530718F49A01BD01EF0170
S1130540DF01F801DBCF21153105F9F0281B390B48
S11305502430310580F48A819B816115710521F075
S1130560FB019383828304C0909379008093780085
S1130570FE01329644C0FE01E20FF31F8193919372
S113058022503109398328833AC020917600309172
S11305907700232B41F42091620030916300309363
S11305A0770020937600209160003091610021153E
S11305B0310541F42DB73EB7409164005091650078
S11305C0241B350BE0917600F0917700E217F307D6
S11305D0A0F42E1B3F0B2817390778F0AC014E5FAF
S11305E05F4F2417350748F04E0F5F1F5093770075
S11305F0409376008193919302C0E0E0F0E0CF0154
S1130600DF91CF911F910F910895CF93DF930097BE
S113061009F481C0FC01329713821282A091780000
S1130620B0917900109781F420813181820F931F5A
S113063020917600309177002817390751F5F0930F
S11306407700E093760067C0ED0120E030E0CE173C
S1130650DF0740F44A815B819E0141155105F1F0A9
S1130660EA01F5CFD383C28340815181840F951F62
S1130670C817D90759F488819981840F951F029668
S1130680918380838A819B819383828321153105A1
S113069029F4F0937900E09378003DC0E901FB83ED
S11306A0EA8349915991C40FD51FEC17FD0761F4F2
S11306B080819181840F951F0296E9019983888333
S11306C0828193819B838A83E0E0F0E012968D918E
S11306D09C911397009719F0FD01DC01F7CF8D91E0
S11306E09C9111979D012E5F3F4F820F931F209184
S11306F07600309177002817390769F4309729F488
S1130700109279001092780002C013821282B09382
S11307107700A0937600DF91CF910895F894FFCFEE
S113072000007A00200001013F065B4F666D7D07E3
S10507307F6FD5
S9030000FC
