S014000046696E616C50726F6A6563742E737265634F
S11300000C942A000C94C6000C9475000C944700C0
S11300100C9447000C9447000C9447000C94470040
S11300200C9447000C9447000C9447000C94530024
S11300300C9447000C9447000C9447000C94470020
S11300400C9447000C9447000C9447000C94470010
S11300500C94470011241FBECFE5D8E0DEBFCDBF0E
S113006010E0A0E6B0E0E4E0F5E002C005900D92F7
S1130070A237B107D9F720E0A2E7B0E001C01D9292
S1130080A937B207E1F70E945C010C9480020C943A
S1130090000084E090E00E945F01FC011382128260
S11300A01182108208951F920F920FB60F9211249D
S11300B08F93EF93FF9380917200882351F0E09126
S11300C06600F0E0E859FF4F808185BB1092720012
S11300D004C015BA81E080937200FF91EF918F9173
S11300E00F900FBE0F901F9018951F920F920FB68E
S11300F00F9211242F933F938F939F93EF93FF932A
S113010089B38B3F81F018F4873F89F013C08D3F8A
S113011031F08E3F79F481E0809367000BC082E078
S11301208093670007C083E08093670003C084E086
S1130130809367008FEF8BBB90916600809167007E
S1130140981311C082B38C7F82BB22B330916600B6
S11301503D5F81E090E002C0880F991F3A95E2F775
S11301608095822382BB13BEE0916700F0E0E859DA
S1130170FF4F808185BBFF91EF919F918F913F91BC
S11301802F910F900FBE0F901F9018951F920F92F2
S11301900FB60F9211242F933F938F939F9386B39F
S11301A08F3E11F138F48F3B39F18F3D09F18F37D0
S11301B051F526C08B3F81F018F4873F89F023C0A6
S11301C08D3F31F08E3FF9F481E0809366001BC0CF
S11301D082E08093660017C083E08093660013C0BA
S11301E084E0809366000FC081E0809366000BC0BA
S11301F082E08093660007C083E08093660003C0BA
S113020084E080936600909167008091660098175F
S113021030F481E082BB82B3806F82BB19C0981333
S113022012C082B3806F82BB22B3309166003D5FFF
S113023081E090E002C0880F991F3A95E2F780951B
S1130240822382BB05C082E082BB82B3806F82BB03
S113025085E083BF9F918F913F912F910F900FBEA7
S11302600F901F90189580EF8ABB8FE08BBB17BA55
S11302708FEF88BB84BB93EF91BB88BB92BB8BB7DA
S113028080648BBF85B7836085BF8BB780688BBF65
S113029085B78C6085BF81E089BF7894E091660062
S11302A0F0E0E859FF4F808185BB0E94490090939C
S11302B074008093730008950E943301FFCF0F935D
S11302C01F93CF93DF938230910510F482E090E086
S11302D0E0917700F091780020E030E0A0E0B0E019
S11302E0309719F1408151810281138148175907D0
S11302F0C8F08417950769F4109731F012960C939F
S1130300129713961C9327C00093770010937800DC
S113031022C02115310519F04217530718F49A0128
S1130320BD01EF01DF01F801DBCF21153105F9F043
S1130330281B390B2430310580F48A819B81611597
S1130340710521F0FB019383828304C090937800AC
S113035080937700FE01329644C0FE01E20FF31F42
S11303608193919322503109398328833AC0209193
S1130370750030917600232B41F420916200309176
S113038063003093760020937500209160003091D3
S113039061002115310541F42DB73EB74091640049
S11303A050916500241B350BE0917500F0917600A7
S11303B0E217F307A0F42E1B3F0B2817390778F038
S11303C0AC014E5F5F4F2417350748F04E0F5F1F97
S11303D050937600409375008193919302C0E0E0BE
S11303E0F0E0CF01DF91CF911F910F910895CF934A
S11303F0DF93009709F481C0FC01329713821282C3
S1130400A0917700B0917800109781F42081318118
S1130410820F931F209175003091760028173907B9
S113042051F5F0937600E093750067C0ED0120E08C
S113043030E0CE17DF0740F44A815B819E0141150D
S11304405105F1F0EA01F5CFD383C2834081518194
S1130450840F951FC817D90759F488819981840F8F
S1130460951F0296918380838A819B8193838283E3
S11304702115310529F4F0937800E09377003DC00D
S1130480E901FB83EA8349915991C40FD51FEC1705
S1130490FD0761F480819181840F951F0296E90123
S11304A099838883828193819B838A83E0E0F0E04F
S11304B012968D919C911397009719F0FD01DC0120
S11304C0F7CF8D919C9111979D012E5F3F4F820F25
S11304D0931F20917500309176002817390769F42D
S11304E0309729F4109278001092770002C013829A
S11304F01282B0937600A0937500DF91CF91089596
S1070500F894FFCF99
S113050400007900200001013F065B4F666D7D0702
S10505147F6FF3
S9030000FC
